:100000000C9434000C9446000C9494070C94460015
:100010000C9446000C9446000C9446000C94460048
:100020000C9446000C9446000C9446000C94460038
:100030000C9446000C9446000C9446000C94460028
:100040000C944A070C9446000C9446000C9446000D
:100050000C9446000C9446000C9446000C94460008
:100060000C9446000C94460011241FBECFEFD8E03C
:10007000DEBFCDBF21E0A0E0B1E001C01D92A13103
:10008000B207E1F70E94E0070C9436090C940000D7
:100090003FB7F89480910D0190910E01A0910F014E
:1000A000B091100126B5A89B05C02F3F19F001960D
:1000B000A11DB11D3FBFBA2FA92F982F8827BC01C2
:1000C000CD01620F711D811D911D42E0660F771FEA
:1000D000881F991F4A95D1F708952C9897FF0CC057
:1000E00030E020E05C9A5C982150310928173907EC
:1000F000CCF72B9A2B9808955C9A5C98FACF0097CE
:1001000069F02C9A30E020E05C9A5C982F5F3F4FBA
:1001100082179307C9F72B9A2B98089590E080E0F7
:100120000C946D00EF92FF920F931F93CF93DF9388
:100130008C01C7E0D0E0EE24E394F12C97010C2E63
:1001400002C0220F331F0A94E2F72023312381E0FB
:1001500090E0232B11F490E080E00E947F00219733
:1001600068F75F9ACBE1D0E0CE010197F1F75F9895
:100170008DEF9FEF0E946D005F9A2197F1F75F98D6
:10018000DF91CF911F910F91FF90EF9008958F9283
:100190009F92AF92BF92CF92DF92EF92FF920F9316
:1001A0001F93CF93DF939B018132910508F03CC0F0
:1001B00083529F4FFC010C943009FE00210146013F
:1001C0005E0173018A01AF01C701DC01F001F70193
:1001D000F901040218021F02210214011401140182
:1001E0001401140114011401140114011401140167
:1001F000140114011401140114012C028091060150
:1002000090910701E8EEF3E0BF010E941C092E9FC8
:10021000A0012F9F500D3E9F500D1124840F951F5C
:100220009093070180930601DF91CF911F910F9169
:10023000FF90EF90DF90CF90BF90AF909F908F9006
:100240000895C0910601D091070108EE13E0CE0198
:10025000B8010E941C09609FF001619FF00D709F22
:10026000F00D1124CE0164E670E00E941C09E80F35
:10027000F91F44E6429FC001439F900D1124E80FEF
:10028000F91FF0930701E0930601CECFC09106015C
:10029000D0910701CE0164E670E00E941C0984E65B
:1002A000869FF001879FF00D1124CE016AE070E077
:1002B0000E941C09E80FF91F4AE0DCCF809106017B
:1002C000909107016AE070E00E941C094AE0469F95
:1002D000C001479F900D1124280F391F309307014B
:1002E00020930601A1CF8091040190910501E8EED1
:1002F000F3E0BF010E941C092E9FA0012F9F500D0B
:100300003E9F500D1124840F951F909305018093FB
:1003100004018ACFC0910401D091050108EE13E0D9
:10032000CE01B8010E941C09609FF001619FF00D91
:10033000709FF00D1124CE0164E670E00E941C094C
:10034000E80FF91F44E6429FC001439F900D11241E
:10035000E80FF91FF0930501E093040165CFC09108
:100360000401D0910501CE0164E670E00E941C09F1
:1003700084E6869FF001879FF00D1124CE016AE08C
:1003800070E00E941C09E80FF91F4AE0DCCF809161
:100390000401909105016AE070E00E941C094AE0A6
:1003A000469FC001479F900D1124280F391F30939D
:1003B00005012093040138CF88EE93E0689FA001E7
:1003C000699F500D789F500D1124809102019091EA
:1003D0000301840F951F909303018093020124CFA2
:1003E00084E6829FA001839F500D1124EECF8AE006
:1003F000F8CF8091020190910301280F391F3093AB
:1004000003012093020110CF88EE93E0689FA001C2
:10041000699F500D789F500D11248091000190919B
:100420000101840F951F9093010180930001FCCE80
:1004300084E6829FA001839F500D1124EECF8AE0B5
:10044000F8CF8091000190910101280F391F30935E
:10045000010120930001E8CE2091060130910701AF
:100460008091040190910501A901482B592B452B3E
:1004700009F002C184EF91E0909307018093060197
:1004800090930501809304018091020190910301F2
:100490002091000130910101822B932B892B09F4CB
:1004A000FAC0109201011092000110920301109203
:1004B0000201A0900601B0900701C0900401D09005
:1004C0000501809102019091030108EE13E0B8014B
:1004D0000E941C0980E3E82EE60E809100019091B5
:1004E0000101B8010E941C0990E3F92EF60E5D98F7
:1004F00088E090E00E94920081E090E00E949200EB
:100500008BE39FE10197F1F78CE090E00E9492006D
:100510005D9AC501B8010E941C09605D862F90E0BC
:100520000E94920024E6822E912CC501B4010E9403
:100530001C09CB01CAE0D0E0BE010E941C09805D0D
:1005400090E00E9492005D9884E190E00E94920009
:100550005D9AC501BE010E941C09B82ECB01BE01E7
:100560000E941C09805D90E00E94920080E38B0D48
:1005700090E00E9492005D9884E190E00E949200D9
:1005800084E190E00E9492005D9AC601B8010E9449
:100590001C09605D862F90E00E949200C601B401A4
:1005A0000E941C09CB01BE010E941C09805D90E0E5
:1005B0000E9492005D9884E190E00E9492005D9A12
:1005C000C601BE010E941C09182FCB01BE010E946A
:1005D0001C09805D90E00E949200105D812F90E0E8
:1005E0000E9492005D9880EC90E00E94920084E16D
:1005F00090E00E94920084E190E00E94920084E1E9
:1006000090E00E9492005D9A8E2D90E00E949200F0
:100610005D9884E190E00E9492005D9A80E390E012
:100620000E94920080E390E00E94920080E390E0BC
:100630000E9492005D9884E190E00E94920084E123
:1006400090E00E9492005D9A8F2D90E00E949200AF
:100650005D9884E190E00E9492005D9A80E390E0D2
:100660000E94920080E390E00E94920080E390E07C
:100670000E9492005D98D8CD009729F4309305012F
:100680002093040101CF232B09F0FECE90930701A4
:1006900080930601F9CE88EB9BE090930301809351
:1006A0000201909301018093000103CF1092070192
:1006B000109206011092050110920401109203019C
:1006C00010920201109201011092000181E090E06D
:1006D0000E9492008BE39FE10197F1F75D9A80E21F
:1006E00090E00E94920083E590E00E94920085E4F1
:1006F00090E00E94920084E590E00E94920080E2E7
:1007000090E00E94920086E590E00E9492008FE4C3
:1007100090E00E9492008CE490E00E94920084E5B8
:1007200090E00E94920081E490E00E94920087E4B1
:1007300090E00E94920085E490E00E94920080E2A6
:1007400090E00E9492008BE290E00E94920080E292
:1007500090E00E9492008DE290E00E9492005D98ED
:1007600080EC90E00E9492005D9A80E290E00E940E
:10077000920083E590E00E94920085E490E00E9460
:10078000920084E590E00E94920080E290E00E9456
:10079000920083E490E00E94920085E590E00E9440
:1007A000920082E590E00E94920082E590E00E9433
:1007B000920085E490E00E9492008EE490E00E9416
:1007C000920084E590E00E94920080E290E00E9416
:1007D00092008BE290E00E94920080E290E00E9402
:1007E00092008DE290E00E9492005D980E94480085
:1007F0004B015C0190E3C92E95E7D92EE12CF12C39
:100800000E944800681979098A099B09683E73406B
:1008100081059105A8F321E0C21AD108E108F10889
:1008200088EE880E83E0981EA11CB11CC114D1046F
:10083000E104F10429F781E090E00E9492008BE34B
:100840009FE10197F1F75D9A86E590E00E949200A2
:1008500080E290E00E9492008BE290E00E94920081
:100860008FE590E00E9492008FE590E00E94920058
:100870008EE290E00E9492008FE590E00E9492004C
:100880008FE590E00E94920080E290E00E9492004A
:100890008DE290E00E9492008FE590E00E9492002D
:1008A0008FE590E00E9492008EE290E00E9492001C
:1008B0008FE590E00E9492008FE590E00E94920008
:1008C00080E290E00E9492005D9880EC90E00E94AF
:1008D00092005D9A89E490E00E94920080E290E0AC
:1008E0000E9492008BE290E00E9492008FE590E0DF
:1008F0000E9492008EE290E00E9492008FE590E0CC
:100900000E9492008FE590E00E9492008FE590E0B7
:100910000E94920080E290E00E9492008DE290E0BE
:100920000E9492008FE590E00E9492008EE290E09B
:100930000E9492008FE590E00E9492008FE590E087
:100940000E9492008FE590E00E94920080E290E089
:100950000E9492005D9880E890E00E94920084E1FD
:1009600090E00E94920084E190E00E94920084E175
:1009700090E00E9492008FE090E00E9492005D9AC9
:10098000C0E010E08BE3E82E8FE1F82ED1E083E0A9
:1009900090E00E947F0090E080E00E946D00C7011F
:1009A0000197F1F729B189B199B139B18695817073
:1009B0008D2720952170822B92FB992790F99D27F6
:1009C000892B31F433FB882780F98D1709F466C031
:1009D000489940C081E390E00E94920061E070E09D
:1009E0008C2F0C2E000C990B0E94C70011E0C70140
:1009F0000197F1F729B189B199B139B18695817023
:100A00008D2720952170822B92FB992790F99D27A5
:100A1000892B69F733FB882780F98D13E8CF81E0B4
:100A20008C0FC150CF3008F0F3C1EC2FF0E0E55E41
:100A3000FA4F0C9430090A070807120708071E0727
:100A40000807DE062607080708072E073A070807E3
:100A50000807420749990EC082E390E00E94920085
:100A600062E070E08C2F0C2E000C990B0E94C700E6
:100A700012E0BDCF4A990EC083E390E00E9492003D
:100A800063E070E08C2F0C2E000C990B0E94C700C5
:100A900013E0ADCF4B99ABCF0E94560390E080E0BE
:100AA0000E946D0029B189B199B139B186958170E3
:100AB0008D2720952170822B92FB992790F99D27F5
:100AC000892B31F433FB882780F98D1709F44FC047
:100AD000489926C084E390E00E94920064E070E0B0
:100AE0008C2F0C2E000C990B0E94C70014E0C7013C
:100AF0000197F1F729B189B199B139B18695817022
:100B00008D2720952170822B92FB992790F99D27A4
:100B1000892B69F733FB882780F98D13E8CF7FCFC6
:100B200049990EC085E390E00E94920065E070E074
:100B30008C2F0C2E000C990B0E94C70015E0D7CF0C
:100B40004A990EC086E390E00E94920066E070E051
:100B50008C2F0C2E000C990B0E94C70016E0C7CFFB
:100B60004B99C5CF81E090E00E949200C0CF90E009
:100B700080E00E946D0029B189B199B139B18695A3
:100B800081708D2720952170822B92FB992790F9F7
:100B90009D27892B31F433FB882780F98D1709F4C1
:100BA0004FC0489926C087E390E00E94920067E01A
:100BB00070E08C2F0C2E000C990B0E94C70017E0E0
:100BC000C7010197F1F729B189B199B139B186957A
:100BD00081708D2720952170822B92FB992790F9A7
:100BE0009D27892B69F733FB882780F98D13E8CF80
:100BF00016CF49990EC088E390E00E94920068E009
:100C000070E08C2F0C2E000C990B0E94C70018E08E
:100C1000D7CF4A990EC089E390E00E94920069E024
:100C200070E08C2F0C2E000C990B0E94C70019E06D
:100C3000C7CF4B99C5CF81E090E00E949200C0CF12
:100C400090E080E00E946D0029B189B199B139B17D
:100C5000869581708D2720952170822B92FB992794
:100C600090F99D27892B31F433FB882780F98D1764
:100C700009F48DCE48997DC01F3F09F46EC0CC2386
:100C800009F46BC0EEEFEC0FEC3008F055C00E2EFF
:100C9000000CFF0BE25BF94F0C943009B7069C0681
:100CA000AF069C06B7069C065A06B7069C069C062D
:100CB000AF06B7065D9880E890E00E94920084E15C
:100CC00090E00E94920084E190E00E94920084E112
:100CD00090E00E94920084E190E00E94920084E102
:100CE00090E00E94920084E190E00E94920084E1F2
:100CF00090E00E94920084E190E00E94920084E1E2
:100D000090E00E94920084E190E00E94920084E1D1
:100D100090E00E94920084E190E00E94920084E1C1
:100D200090E00E94920084E190E00E94920084E1B1
:100D300090E00E9492005D9A5D9880E190E00E94B0
:100D400092005D9AC150812F992781950CF490955E
:100D5000BC018C2F90E00E94C7001FEF18CE5D9859
:100D600080E190E00E94920080E190E0E2CF5D9807
:100D7000FBCF49991DC080E390E00E949200C7011B
:100D80000197F1F729B189B199B139B1869581708F
:100D90008D2720952170822B92FB992790F99D2712
:100DA000892B69F733FB882780F98D13E8CF37CE7D
:100DB0004A9B2CC04B99E3CFC830A4F45D9880ECDB
:100DC00090E00E94920084E190E00E94920084E111
:100DD00090E00E94920084E190E00E9492005D9A6F
:100DE000C8E0D5CD5D9880E890E00E94920084E153
:100DF00090E00E94920084E190E00E94920084E1E1
:100E000090E00E9492005D9ACFEFB9CFCFE0B7CFCC
:100E1000C82FBDCD5D9884E190E00E9492005D9A5C
:100E2000C2E0B5CD5D9884E190E00E94920084E13B
:100E300090E00E9492005D9AC4E0A9CD5D9884E1A3
:100E400090E00E9492005D9AC6E0A1CD5D9884E199
:100E500090E00E9492005D9AC9E099CD5D9884E18E
:100E600090E00E94920084E190E00E9492005D9ADE
:100E7000CCE08DCD5D9884E190E00E9492005D9A77
:100E8000CDE085CD70E060E080E290E00E94C70098
:100E9000C0E07DCD1F920F920FB60F9211242F93B9
:100EA0003F938F939F93AF93BF938091090190914C
:100EB0000A01A0910B01B0910C013091080123E0CF
:100EC000230F2D3758F50196A11DB11D2093080160
:100ED0008093090190930A01A0930B01B0930C0138
:100EE00080910D0190910E01A0910F01B091100120
:100EF0000196A11DB11D80930D0190930E01A09349
:100F00000F01B0931001BF91AF919F918F913F91CD
:100F10002F910F900FBE0F901F90189526E8230F6A
:100F20000296A11DB11DD2CF1F920F920FB60F9244
:100F300011242F933F934F935F936F937F938F93DE
:100F40009F93AF93BF93EF93FF93E99883E090E073
:100F50000E947F0090E080E00E946D004B9B0E9409
:100F6000560390E080E00E946D004B991CC081E028
:100F700090E00E9492005D988DEF9FEF0E946D00BF
:100F800082E08DBBFF91EF91BF91AF919F918F91C7
:100F90007F916F915F914F913F912F910F900FBE75
:100FA0000F901F90189590E080E00E946D004B9B81
:100FB000DECF90E080E00E946D004B99DCCFD7CF70
:100FC000789484B5826084BD84B5816084BD85B524
:100FD000826085BD85B5816085BD80916E00816030
:100FE00080936E00109281008091810082608093D6
:100FF00081008091810081608093810080918000D8
:101000008160809380008091B10084608093B10002
:101010008091B00081608093B00080917A008460FC
:1010200080937A0080917A00826080937A00809128
:101030007A00816080937A0080917A008068809342
:101040007A001092C1008FE384B917B880EF8AB993
:1010500088E08093690082E08DBB8FEF9FE09093E2
:101060008700809386001092890010928800109269
:101070008B0010928A0082EA8093800089E180933D
:1010800081008BB18F608BB98BE798E30197F1F703
:1010900082E090E00E947F008DEF9FEF0E946D0044
:1010A0005F9A8BE39CE90197F1F75F985F9ACBE930
:1010B000DFE0CE010197F1F75F985F9ACE010197CB
:1010C000F1F781E090E00E947F008CEF9FEF0E949B
:1010D0006D005F9A2197F1F75F9888E290E00E9497
:1010E00092008CE090E00E94920081E090E00E94EB
:1010F00092008BE39FE10197F1F75D9A80E290E027
:101100000E94920080E290E00E94920080E590E0D0
:101110000E9492008FE690E00E94920087E790E0A4
:101120000E94920085E690E00E94920082E790E0A3
:101130000E94920080E290E00E94920083E590E09D
:101140000E94920085E790E00E94920080E790E084
:101150000E94920080E790E00E9492008CE690E06E
:101160000E94920089E790E00E9492005D9880ECD6
:1011700090E00E9492005D9A87E490E00E949200C5
:1011800081E690E00E94920082E690E00E94920048
:1011900082E790E00E94920089E690E00E9492002F
:1011A00085E690E00E9492008CE690E00E9492001A
:1011B00080E290E00E94920084E490E00E9492001D
:1011C00085E690E00E94920086E790E00E949200FF
:1011D00089E690E00E94920083E690E00E949200EF
:1011E00085E690E00E94920083E790E00E949200E2
:1011F0005D98789490E080E02BE93FE0909389003F
:101200008093880090938B0080938A00F901319736
:10121000F1F78F3F4FE0940769F490938900809332
:10122000880090938B0080938A00F9013197F1F741
:10123000019799F70196E2CFAA1BBB1B51E107C0AA
:10124000AA1FBB1FA617B70710F0A61BB70B881F56
:10125000991F5A95A9F780959095BC01CD010895E5
:10126000EE0FFF1F0590F491E02D0994F894FFCF45
:00000001FF
